{
  "_format": "hh-sol-artifact-1",
  "contractName": "LeaseRegistry",
  "sourceName": "contracts/LeaseRegistry.sol",
  "abi": [
    {
      "inputs": [
        {
          "internalType": "address",
          "name": "_propertyRegistryAddress",
          "type": "address"
        }
      ],
      "stateMutability": "nonpayable",
      "type": "constructor"
    },
    {
      "anonymous": false,
      "inputs": [
        {
          "indexed": false,
          "internalType": "uint256",
          "name": "leaseId",
          "type": "uint256"
        },
        {
          "indexed": false,
          "internalType": "address",
          "name": "from",
          "type": "address"
        },
        {
          "indexed": false,
          "internalType": "uint256",
          "name": "amount",
          "type": "uint256"
        }
      ],
      "name": "DepositReceived",
      "type": "event"
    },
    {
      "anonymous": false,
      "inputs": [
        {
          "indexed": false,
          "internalType": "uint256",
          "name": "leaseId",
          "type": "uint256"
        },
        {
          "indexed": false,
          "internalType": "address",
          "name": "to",
          "type": "address"
        },
        {
          "indexed": false,
          "internalType": "uint256",
          "name": "amount",
          "type": "uint256"
        }
      ],
      "name": "DepositWithdrawn",
      "type": "event"
    },
    {
      "anonymous": false,
      "inputs": [
        {
          "indexed": false,
          "internalType": "uint256",
          "name": "leaseId",
          "type": "uint256"
        },
        {
          "indexed": false,
          "internalType": "address",
          "name": "landlord",
          "type": "address"
        }
      ],
      "name": "LandlordSigned",
      "type": "event"
    },
    {
      "anonymous": false,
      "inputs": [
        {
          "indexed": false,
          "internalType": "uint256",
          "name": "leaseId",
          "type": "uint256"
        }
      ],
      "name": "LeaseActivated",
      "type": "event"
    },
    {
      "anonymous": false,
      "inputs": [
        {
          "indexed": false,
          "internalType": "uint256",
          "name": "leaseId",
          "type": "uint256"
        },
        {
          "indexed": true,
          "internalType": "uint256",
          "name": "propertyId",
          "type": "uint256"
        },
        {
          "indexed": true,
          "internalType": "address",
          "name": "landlord",
          "type": "address"
        },
        {
          "indexed": true,
          "internalType": "address",
          "name": "tenant",
          "type": "address"
        }
      ],
      "name": "LeaseCreated",
      "type": "event"
    },
    {
      "anonymous": false,
      "inputs": [
        {
          "indexed": false,
          "internalType": "uint256",
          "name": "leaseId",
          "type": "uint256"
        }
      ],
      "name": "LeaseTerminated",
      "type": "event"
    },
    {
      "anonymous": false,
      "inputs": [
        {
          "indexed": false,
          "internalType": "uint256",
          "name": "leaseId",
          "type": "uint256"
        },
        {
          "indexed": false,
          "internalType": "address",
          "name": "tenant",
          "type": "address"
        }
      ],
      "name": "TenantSigned",
      "type": "event"
    },
    {
      "inputs": [
        {
          "internalType": "uint256",
          "name": "_propertyId",
          "type": "uint256"
        },
        {
          "internalType": "address",
          "name": "_tenant",
          "type": "address"
        },
        {
          "internalType": "string",
          "name": "_ipfsHash",
          "type": "string"
        },
        {
          "internalType": "uint256",
          "name": "_rent",
          "type": "uint256"
        },
        {
          "internalType": "uint256",
          "name": "_deposit",
          "type": "uint256"
        },
        {
          "internalType": "uint256",
          "name": "_startDate",
          "type": "uint256"
        },
        {
          "internalType": "uint256",
          "name": "_endDate",
          "type": "uint256"
        },
        {
          "internalType": "string",
          "name": "_propertyType",
          "type": "string"
        }
      ],
      "name": "createLease",
      "outputs": [
        {
          "internalType": "uint256",
          "name": "",
          "type": "uint256"
        }
      ],
      "stateMutability": "nonpayable",
      "type": "function"
    },
    {
      "inputs": [
        {
          "internalType": "uint256",
          "name": "_leaseId",
          "type": "uint256"
        },
        {
          "internalType": "bytes",
          "name": "_signature",
          "type": "bytes"
        }
      ],
      "name": "landlordSignLease",
      "outputs": [],
      "stateMutability": "nonpayable",
      "type": "function"
    },
    {
      "inputs": [],
      "name": "leaseCount",
      "outputs": [
        {
          "internalType": "uint256",
          "name": "",
          "type": "uint256"
        }
      ],
      "stateMutability": "view",
      "type": "function"
    },
    {
      "inputs": [
        {
          "internalType": "uint256",
          "name": "",
          "type": "uint256"
        }
      ],
      "name": "leases",
      "outputs": [
        {
          "internalType": "uint256",
          "name": "propertyId",
          "type": "uint256"
        },
        {
          "internalType": "address",
          "name": "landlord",
          "type": "address"
        },
        {
          "internalType": "address",
          "name": "tenant",
          "type": "address"
        },
        {
          "internalType": "string",
          "name": "ipfsHash",
          "type": "string"
        },
        {
          "internalType": "uint256",
          "name": "rent",
          "type": "uint256"
        },
        {
          "internalType": "uint256",
          "name": "deposit",
          "type": "uint256"
        },
        {
          "internalType": "uint256",
          "name": "startDate",
          "type": "uint256"
        },
        {
          "internalType": "uint256",
          "name": "endDate",
          "type": "uint256"
        },
        {
          "internalType": "string",
          "name": "propertyType",
          "type": "string"
        },
        {
          "internalType": "bytes",
          "name": "landlordSignature",
          "type": "bytes"
        },
        {
          "internalType": "bytes",
          "name": "tenantSignature",
          "type": "bytes"
        },
        {
          "internalType": "enum LeaseRegistry.LeaseStatus",
          "name": "status",
          "type": "uint8"
        },
        {
          "internalType": "uint256",
          "name": "balance",
          "type": "uint256"
        }
      ],
      "stateMutability": "view",
      "type": "function"
    },
    {
      "inputs": [],
      "name": "propertyRegistryAddress",
      "outputs": [
        {
          "internalType": "address",
          "name": "",
          "type": "address"
        }
      ],
      "stateMutability": "view",
      "type": "function"
    },
    {
      "inputs": [
        {
          "internalType": "uint256",
          "name": "_leaseId",
          "type": "uint256"
        },
        {
          "internalType": "bytes",
          "name": "_signature",
          "type": "bytes"
        }
      ],
      "name": "tenantSignLease",
      "outputs": [],
      "stateMutability": "payable",
      "type": "function"
    },
    {
      "inputs": [
        {
          "internalType": "uint256",
          "name": "_leaseId",
          "type": "uint256"
        },
        {
          "internalType": "uint256",
          "name": "_amount",
          "type": "uint256"
        }
      ],
      "name": "withdrawFunds",
      "outputs": [],
      "stateMutability": "nonpayable",
      "type": "function"
    }
  ],
  "bytecode": "0x6080346100cf57601f61141638819003918201601f19168301916001600160401b038311848410176100d4578084926020946040528339810103126100cf57516001600160a01b038116908190036100cf57801561007a57600280546001600160a01b03191691909117905560405161132b90816100eb8239f35b60405162461bcd60e51b815260206004820152602760248201527f50726f7065727479526567697374727920616464726573732063616e6e6f74206044820152666265207a65726f60c81b6064820152608490fd5b600080fd5b634e487b7160e01b600052604160045260246000fdfe6080604052600436101561001257600080fd5b6000803560e01c806316e0c22e14610e865780638927a10614610d105780639488fb8714610955578063b4c0498b14610937578063c423383b1461090e578063e52531051461075d5763f1576e931461006a57600080fd5b3461075a5761010036600319011261075a57602435906001600160a01b038216820361075a576044356001600160401b03811161073b576100af903690600401611286565b9160e4356001600160401b03811161074b576100cf903690600401611286565b9160248160018060a01b0360025416604051928380926332665ffb60e01b825260043560048301525afa90811561074f57829161069e575b506001600160a01b03163303610646576001549260001984146106325760018401600155604051946101a086018681106001600160401b0382111761061c57604052600435865233602087015260018060a01b03841660408701526060860152606435608086015260843560a086015260a43560c086015260c43560e086015261010085015260405161019981611098565b8181526101208501526040516101ae81611098565b8181526101408501528061016085015280610180850152600183018152806020526040812090845182556001820160018060a01b03602087015116906bffffffffffffffffffffffff60a01b9182825416179055600283019060018060a01b036040880151169082541617905560608501518051906001600160401b0382116104b057819061024d82610244600388015461116e565b600388016112a1565b602090601f83116001146105ad5784926105a2575b50508160011b916000199060031b1c19161760038301555b6080850151600483015560a0850151600583015560c0850151600683015560e0850151600783015561010085015180516001600160401b0381116104b0578060088501926102d2826102cc865461116e565b866112a1565b602090601f831160011461053e578592610533575b50508160011b916000199060031b1c19161790555b61012085015180516001600160401b0381116104b057806009850192610326826102cc865461116e565b602090601f83116001146104cf5785926104c4575b50508160011b916000199060031b1c19161790555b6101408501518051906001600160401b0382116104b05781906103838261037a600a88015461116e565b600a88016112a1565b602090601f831160011461044657849261043b575b50508160011b916000199060031b1c191617600a8301555b610160850151600b83019160058210156104275750602095600c926101809260ff8019835416911617905501519101556040519060018301825260018060a01b03169033907f2609b596223b76ac2bc5e324e9725873cf0fdfe04fa14388b5fae5d1513bc2cd8560043592a4600160405191018152f35b634e487b7160e01b81526021600452602490fd5b015190503880610398565b600a86018552602085209250601f198416855b818110610498575090846001959493921061047f575b505050811b01600a8301556103b0565b015160001960f88460031b161c1916905538808061046f565b92936020600181928786015181550195019301610459565b634e487b7160e01b83526041600452602483fd5b01519050388061033b565b848652602086209250601f198416865b81811061051b5750908460019594939210610502575b505050811b019055610350565b015160001960f88460031b161c191690553880806104f5565b929360206001819287860151815501950193016104df565b0151905038806102e7565b848652602086209250601f198416865b81811061058a5750908460019594939210610571575b505050811b0190556102fc565b015160001960f88460031b161c19169055388080610564565b9293602060018192878601518155019501930161054e565b015190503880610262565b9250600385018452602084209084935b601f1984168510610601576001945083601f198116106105e8575b505050811b01600383015561027a565b015160001960f88460031b161c191690553880806105d8565b818101518355602094850194600190930192909101906105bd565b634e487b7160e01b600052604160045260246000fd5b634e487b7160e01b82526011600452602482fd5b60405162461bcd60e51b815260206004820152602a60248201527f4f6e6c79207468652070726f7065727479206f776e65722063616e206372656160448201526974652061206c6561736560b01b6064820152608490fd5b90503d8083833e6106af81836110b3565b81019060808183031261074b578051916001600160a01b03831683036107475760208201516001600160401b03811161074357820181601f82011215610743578051916106fb836110d4565b9061070960405192836110b3565b8382526020848401011161073f579161072b916020806060969501910161123e565b01518015150361073b5738610107565b5080fd5b8580fd5b8480fd5b8380fd5b8280fd5b6040513d84823e3d90fd5b80fd5b503461075a57604036600319011261075a576004356024358183528260205260408320916001830160018060a01b039384825416908133036108c957600c0180549085821061088457858203918211610870578786819482948394555af13d1561086b573d6107cb816110d4565b906107d960405192836110b3565b81528660203d92013e5b1561083257546040805192835293166001600160a01b03166020820152918201527fae1f357660ab777dcfd38c0ab6357834684ec26289ecfa07ec65dbf6c3c643129080606081015b0390a180f35b60405162461bcd60e51b815260206004820152601160248201527015da5d1a191c985dd85b0819985a5b1959607a1b6044820152606490fd5b6107e3565b634e487b7160e01b88526011600452602488fd5b60405162461bcd60e51b815260206004820152601d60248201527f496e73756666696369656e742062616c616e6365206f6e206c656173650000006044820152606490fd5b60405162461bcd60e51b815260206004820152601a60248201527f4f6e6c79206c616e646c6f72642063616e2077697468647261770000000000006044820152606490fd5b503461075a578060031936011261075a576002546040516001600160a01b039091168152602090f35b503461075a578060031936011261075a576020600154604051908152f35b5061095f3661112b565b8183526020838152604084206002810154929493926001600160a01b039081163303610cd457600b82019060ff825416916005831015610cc0576001809303610c7b5760058401548015610c39573410610bf457600c8401805490348201809211610be057556040805187815233602082015234918101919091527f5b063c6569a91e8133fc6cd71d31a4ca5c65c652fd53ae093f46107754f0854190606090a15b600a840188516001600160401b0394858211610bcc57610a2b82610a25855461116e565b856112a1565b879a601f8311600114610b665782918b9c83928d999a9b9c9d94610b5b575b50501b916000199060031b1c19161790555b600360ff19825416179055600254169254833b1561073b57604051632416885360e11b8152600481019190915233602482015260448101869052928390606490829084905af18015610b5057610b0c575b5050604080518381523360208201527f8c482976f65be3d81f6327afe47a1106e409f08dbaf3796d639250d1677c721893917f3dfbb6f692712dbbb152f7bc91aaf932ab90af18d2fa50bc97d3f72317ebe57691a1604051908152a180f35b8111610b3c576040527f8c482976f65be3d81f6327afe47a1106e409f08dbaf3796d639250d1677c721838610aad565b634e487b7160e01b84526041600452602484fd5b6040513d87823e3d90fd5b015192503880610a4a565b838b52888b20601f1984169c92939290918c8e5b8110610bb65750838d9e9d999a9b9c9d10610b9d575b505050811b019055610a5c565b015160001960f88460031b161c19169055388080610b90565b81830151845592850192918b01918b018e610b7a565b634e487b7160e01b8a52604160045260248afd5b634e487b7160e01b89526011600452602489fd5b60405162461bcd60e51b815260048101869052601960248201527f496e73756666696369656e74206465706f7369742073656e74000000000000006044820152606490fd5b503415610a015760405162461bcd60e51b8152600481018690526013602482015272139bc819195c1bdcda5d08195e1c1958dd1959606a1b6044820152606490fd5b60405162461bcd60e51b815260048101869052601c60248201527f4c65617365206e6f74207369676e6564206279206c616e646c6f7264000000006044820152606490fd5b634e487b7160e01b87526021600452602487fd5b60405162461bcd60e51b815260048101849052601460248201527327b7363c903a32b730b73a1031b0b71039b4b3b760611b6044820152606490fd5b503461075a57602036600319011261075a57600435815260208190526040808220805460018201546002830154935191936001600160a01b039182169291169080610d5e81600387016111a8565b03610d6990826110b3565b6004840154600585015490600686015460078701549060405193848060088b0190610d93916111a8565b03610d9e90866110b3565b6040519586610db08160098d016111a8565b03610dbb90886110b3565b6040519788610dcd81600a8e016111a8565b03610dd8908a6110b3565b600b8b015460ff169a600c0154996040519c8d5260208d015260408c01526101a08060608d01528b01610e0a91611261565b9360808b015260a08a015260c089015260e0880152868103610100880152610e3191611261565b858103610120870152610e4391611261565b848103610140860152610e5591611261565b916005811015610e72578394506101608401526101808301520390f35b634e487b7160e01b85526021600452602485fd5b503461075a57610e953661112b565b9190808252602092828452604083209060019060018060a01b038284015416330361105a57600b83019260ff8454166005811015610cc05761101557600901908051906001600160401b03821161100157610ef482610a25855461116e565b87601f8311600114610f7357509080879861082c97969594937f88d5d6ad1ccdcd5e3bf54b98ceacf5476d4916a88e228193f31bc1abcbfa642d9992610f68575b5050600019600383901b1c191690831b1790555b815460ff19161790556040805191825233602083015290918291820190565b015190503880610f35565b9790601f1983168489528989209989905b828210610fea57505098859493919261082c98979693837f88d5d6ad1ccdcd5e3bf54b98ceacf5476d4916a88e228193f31bc1abcbfa642d9b9c10610fd1575b505050811b019055610f49565b015160001960f88460031b161c19169055388080610fc4565b838501518c559a87019a9384019390810190610f84565b634e487b7160e01b87526041600452602487fd5b60405162461bcd60e51b815260048101889052601f60248201527f496e76616c6964206c6561736520737461746520666f72207369676e696e67006044820152606490fd5b60405162461bcd60e51b815260048101879052601660248201527527b7363c903630b7323637b9321031b0b71039b4b3b760511b6044820152606490fd5b602081019081106001600160401b0382111761061c57604052565b90601f801991011681019081106001600160401b0382111761061c57604052565b6001600160401b03811161061c57601f01601f191660200190565b9291926110fb826110d4565b9161110960405193846110b3565b829481845281830111611126578281602093846000960137010152565b600080fd5b9060406003198301126111265760043591602435906001600160401b03821161112657806023830112156111265781602461116b936004013591016110ef565b90565b90600182811c9216801561119e575b602083101461118857565b634e487b7160e01b600052602260045260246000fd5b91607f169161117d565b90600092918054916111b98361116e565b91828252600193848116908160001461121b57506001146111db575b50505050565b90919394506000526020928360002092846000945b8386106112075750505050010190388080806111d5565b8054858701830152940193859082016111f0565b9294505050602093945060ff191683830152151560051b010190388080806111d5565b60005b8381106112515750506000910152565b8181015183820152602001611241565b9060209161127a8151809281855285808601910161123e565b601f01601f1916010190565b9080601f830112156111265781602061116b933591016110ef565b90601f81116112af57505050565b600091825260208220906020601f850160051c830194106112eb575b601f0160051c01915b8281106112e057505050565b8181556001016112d4565b90925082906112cb56fea26469706673582212201ffc21adfabf72db698c0d734c7027b2db525f7aaa94a3be560709f9fc07d25664736f6c63430008140033",
  "linkReferences": {},
  "deployedLinkReferences": {}
}