{
  "_format": "hh-sol-artifact-1",
  "contractName": "PropertyRegistry",
  "sourceName": "contracts/PropertyRegistry.sol",
  "abi": [
    {
      "anonymous": false,
      "inputs": [
        {
          "indexed": true,
          "internalType": "uint256",
          "name": "propertyId",
          "type": "uint256"
        },
        {
          "indexed": true,
          "internalType": "address",
          "name": "tenant",
          "type": "address"
        },
        {
          "indexed": false,
          "internalType": "uint256",
          "name": "leaseId",
          "type": "uint256"
        }
      ],
      "name": "PropertyLeased",
      "type": "event"
    },
    {
      "anonymous": false,
      "inputs": [
        {
          "indexed": true,
          "internalType": "uint256",
          "name": "propertyId",
          "type": "uint256"
        },
        {
          "indexed": true,
          "internalType": "address",
          "name": "owner",
          "type": "address"
        },
        {
          "indexed": false,
          "internalType": "string",
          "name": "location",
          "type": "string"
        },
        {
          "indexed": false,
          "internalType": "uint256",
          "name": "rentOffer",
          "type": "uint256"
        }
      ],
      "name": "PropertyRegistered",
      "type": "event"
    },
    {
      "anonymous": false,
      "inputs": [
        {
          "indexed": true,
          "internalType": "uint256",
          "name": "propertyId",
          "type": "uint256"
        }
      ],
      "name": "PropertyUnleased",
      "type": "event"
    },
    {
      "inputs": [
        {
          "internalType": "uint256",
          "name": "_propertyId",
          "type": "uint256"
        }
      ],
      "name": "getProperty",
      "outputs": [
        {
          "internalType": "address",
          "name": "owner",
          "type": "address"
        },
        {
          "internalType": "string",
          "name": "location",
          "type": "string"
        },
        {
          "internalType": "uint256",
          "name": "rentOffer",
          "type": "uint256"
        },
        {
          "internalType": "bool",
          "name": "isLeased",
          "type": "bool"
        }
      ],
      "stateMutability": "view",
      "type": "function"
    },
    {
      "inputs": [
        {
          "internalType": "address",
          "name": "",
          "type": "address"
        }
      ],
      "name": "ownerPropertyCount",
      "outputs": [
        {
          "internalType": "uint256",
          "name": "",
          "type": "uint256"
        }
      ],
      "stateMutability": "view",
      "type": "function"
    },
    {
      "inputs": [
        {
          "internalType": "uint256",
          "name": "",
          "type": "uint256"
        }
      ],
      "name": "properties",
      "outputs": [
        {
          "internalType": "address payable",
          "name": "owner",
          "type": "address"
        },
        {
          "internalType": "string",
          "name": "location",
          "type": "string"
        },
        {
          "internalType": "uint256",
          "name": "rentOffer",
          "type": "uint256"
        },
        {
          "internalType": "string",
          "name": "propertyHash",
          "type": "string"
        },
        {
          "internalType": "bool",
          "name": "isRegistered",
          "type": "bool"
        },
        {
          "internalType": "bool",
          "name": "isLeased",
          "type": "bool"
        }
      ],
      "stateMutability": "view",
      "type": "function"
    },
    {
      "inputs": [],
      "name": "propertyCount",
      "outputs": [
        {
          "internalType": "uint256",
          "name": "",
          "type": "uint256"
        }
      ],
      "stateMutability": "view",
      "type": "function"
    },
    {
      "inputs": [
        {
          "internalType": "string",
          "name": "_location",
          "type": "string"
        },
        {
          "internalType": "uint256",
          "name": "_rentOffer",
          "type": "uint256"
        },
        {
          "internalType": "string",
          "name": "_propertyHash",
          "type": "string"
        }
      ],
      "name": "registerProperty",
      "outputs": [
        {
          "internalType": "uint256",
          "name": "",
          "type": "uint256"
        }
      ],
      "stateMutability": "nonpayable",
      "type": "function"
    },
    {
      "inputs": [
        {
          "internalType": "uint256",
          "name": "_propertyId",
          "type": "uint256"
        },
        {
          "internalType": "address",
          "name": "_tenant",
          "type": "address"
        },
        {
          "internalType": "uint256",
          "name": "_leaseId",
          "type": "uint256"
        }
      ],
      "name": "setLeased",
      "outputs": [],
      "stateMutability": "nonpayable",
      "type": "function"
    }
  ],
  "bytecode": "0x6080806040523461001657610927908161001c8239f35b600080fdfe6080604052600436101561001257600080fd5b60003560e01c806332665ffb146106be578063482d10a61461053257806389cb8f6d146104f4578063c361a335146104d6578063d6110512146101025763f7b108081461005e57600080fd5b346100fd5760203660031901126100fd57600435600090815260208190526040902080546001600160a01b031661009760018301610826565b9160ff6100e3600283015460046100b060038601610826565b940154936100d0604051978897885260c0602089015260c0880190610733565b9160408701528582036060870152610733565b918181161515608085015260081c16151560a08301520390f35b600080fd5b346100fd5760603660031901126100fd5760043567ffffffffffffffff81116100fd57610133903690600401610795565b60443567ffffffffffffffff81116100fd57610153903690600401610795565b9061015f6001546108cc565b908160015560405160c0810181811067ffffffffffffffff8211176103f05760405233815260208101938285526024356040830152606082015260016080820152600060a082015282600052600060205260406000209360018060a01b038251166bffffffffffffffffffffffff60a01b8654161785555180519067ffffffffffffffff82116103f05781906101f860018801546107ec565b601f8111610483575b50602090601f831160011461041157600092610406575b50508160011b916000199060031b1c19161760018501555b60408101516002850155606081015193845167ffffffffffffffff81116103f05761025e60038301546107ec565b95601f87116103a9575b602096508690601f83116001146103385760049392916000918361032d575b50508160011b916000199060031b1c19161760038201555b0190608081015115159060ff61ff0060a08554930151151560081b1692169061ffff191617179055336000526002835260406000206102de81546108cc565b9055817f4a94c8d5fab40a5edfd34ed099a279029ee376bf6a571684e0cffd8e00216dbc61031760405193604085526040850190610733565b92602435868201528033940390a3604051908152f35b015190508880610287565b9060038401600052876000209160005b601f1985168110610392575091839160019360049695601f19811610610379575b505050811b01600382015561029f565b015160001960f88460031b161c19169055888080610369565b919289600181928685015181550194019201610348565b600383016000526020600020601f830160051c8101602084106103e9575b601f890160051c820181106103dd575050610268565b600081556001016103c7565b50806103c7565b634e487b7160e01b600052604160045260246000fd5b015190508680610218565b9250600187016000526020600020906000935b601f1984168510610468576001945083601f1981161061044f575b505050811b016001850155610230565b015160001960f88460031b161c1916905586808061043f565b81810151835560209485019460019093019290910190610424565b909150600187016000526020600020601f840160051c8101602085106104cf575b90849392915b601f830160051c820181106104c0575050610201565b600081558594506001016104aa565b50806104a4565b346100fd5760003660031901126100fd576020600154604051908152f35b346100fd5760203660031901126100fd576004356001600160a01b038116908190036100fd5760005260026020526020604060002054604051908152f35b346100fd5760603660031901126100fd576001600160a01b0360243581811691600435918390036100fd57816000526020906000825260406000205416330361067b57816000526000815260ff600460406000200154161561063757816000526000815260ff60046040600020015460081c166105f3577f948ce1feba1a43af7d4524f801d07dffafe2515e33b7b1f9a6eb26fa88a3c684908260005260008152600460406000200161010061ff00198254161790556040516044358152a3005b6064906040519062461bcd60e51b82526004820152601a60248201527f50726f706572747920697320616c7265616479206c65617365640000000000006044820152fd5b6064906040519062461bcd60e51b82526004820152601b60248201527f50726f7065727479206d757374206265207265676973746572656400000000006044820152fd5b6064906040519062461bcd60e51b825280600483015260248201527f43616c6c6572206973206e6f74207468652070726f7065727479206f776e65726044820152fd5b346100fd5760203660031901126100fd576004356000526000602052604060002060018060a01b038154166002820154610705600160ff600486015460081c169401610826565b926107226040519485948552608060208601526080850190610733565b916040840152151560608301520390f35b919082519283825260005b84811061075f575050826000602080949584010152601f8019910116010190565b60208183018101518483018201520161073e565b90601f8019910116810190811067ffffffffffffffff8211176103f057604052565b81601f820112156100fd5780359067ffffffffffffffff82116103f057604051926107ca601f8401601f191660200185610773565b828452602083830101116100fd57816000926020809301838601378301015290565b90600182811c9216801561081c575b602083101461080657565b634e487b7160e01b600052602260045260246000fd5b91607f16916107fb565b906040519182600082549261083a846107ec565b9081845260019485811690816000146108a95750600114610866575b505061086492500383610773565b565b9093915060005260209081600020936000915b81831061089157505061086493508201013880610856565b85548884018501529485019487945091830191610879565b91505061086494506020925060ff191682840152151560051b8201013880610856565b60001981146108db5760010190565b634e487b7160e01b600052601160045260246000fdfea2646970667358221220a8ca58ea10b23bec5458dc3082913f70856fc412ae8392462d119f0d0f43715464736f6c63430008140033",
  "linkReferences": {},
  "deployedLinkReferences": {}
}